{
    "_format": "hh-sol-artifact-1",
    "contractName": "Disperse",
    "sourceName": "contracts/disperse.sol",
    "abi": [
        {
            "inputs": [
                {
                    "internalType": "address[]",
                    "name": "recipients",
                    "type": "address[]"
                },
                {
                    "internalType": "uint256[]",
                    "name": "values",
                    "type": "uint256[]"
                }
            ],
            "name": "disperseEth",
            "outputs": [],
            "stateMutability": "payable",
            "type": "function"
        },
        {
            "inputs": [
                {
                    "internalType": "contract IERC20",
                    "name": "tokenAddress",
                    "type": "address"
                },
                {
                    "internalType": "address[]",
                    "name": "recipients",
                    "type": "address[]"
                },
                {
                    "internalType": "uint256[]",
                    "name": "values",
                    "type": "uint256[]"
                }
            ],
            "name": "disperseToken",
            "outputs": [],
            "stateMutability": "nonpayable",
            "type": "function"
        }
    ],
    "bytecode": "0x608060405234801561001057600080fd5b50610a36806100206000396000f3fe6080604052600436106100295760003560e01c80631fb777b91461002e578063c73a2d601461004a575b600080fd5b610048600480360381019061004391906105f7565b610073565b005b34801561005657600080fd5b50610071600480360381019061006c919061075e565b610169565b005b60005b825181101561010d57828181518110610092576100916107f3565b5b602002602001015173ffffffffffffffffffffffffffffffffffffffff166108fc8383815181106100c6576100c56107f3565b5b60200260200101519081150290604051600060405180830381858888f193505050501580156100f9573d6000803e3d6000fd5b50808061010590610851565b915050610076565b5060004790506000811115610164573373ffffffffffffffffffffffffffffffffffffffff166108fc829081150290604051600060405180830381858888f19350505050158015610162573d6000803e3d6000fd5b505b505050565b60008590506000805b868690508110156101b7578484828181106101905761018f6107f3565b5b90506020020135826101a2919061089a565b915080806101af90610851565b915050610172565b508173ffffffffffffffffffffffffffffffffffffffff166323b872dd3330846040518463ffffffff1660e01b81526004016101f59392919061090e565b6020604051808303816000875af1158015610214573d6000803e3d6000fd5b505050506040513d601f19601f82011682018060405250810190610238919061097d565b61024157600080fd5b60005b86869050811015610329578273ffffffffffffffffffffffffffffffffffffffff1663a9059cbb88888481811061027e5761027d6107f3565b5b905060200201602081019061029391906109aa565b8787858181106102a6576102a56107f3565b5b905060200201356040518363ffffffff1660e01b81526004016102ca9291906109d7565b6020604051808303816000875af11580156102e9573d6000803e3d6000fd5b505050506040513d601f19601f8201168201806040525081019061030d919061097d565b61031657600080fd5b808061032190610851565b915050610244565b5050505050505050565b6000604051905090565b600080fd5b600080fd5b600080fd5b6000601f19601f8301169050919050565b7f4e487b7100000000000000000000000000000000000000000000000000000000600052604160045260246000fd5b6103958261034c565b810181811067ffffffffffffffff821117156103b4576103b361035d565b5b80604052505050565b60006103c7610333565b90506103d3828261038c565b919050565b600067ffffffffffffffff8211156103f3576103f261035d565b5b602082029050602081019050919050565b600080fd5b600073ffffffffffffffffffffffffffffffffffffffff82169050919050565b600061043482610409565b9050919050565b61044481610429565b811461044f57600080fd5b50565b6000813590506104618161043b565b92915050565b600061047a610475846103d8565b6103bd565b9050808382526020820190506020840283018581111561049d5761049c610404565b5b835b818110156104c657806104b28882610452565b84526020840193505060208101905061049f565b5050509392505050565b600082601f8301126104e5576104e4610347565b5b81356104f5848260208601610467565b91505092915050565b600067ffffffffffffffff8211156105195761051861035d565b5b602082029050602081019050919050565b6000819050919050565b61053d8161052a565b811461054857600080fd5b50565b60008135905061055a81610534565b92915050565b600061057361056e846104fe565b6103bd565b9050808382526020820190506020840283018581111561059657610595610404565b5b835b818110156105bf57806105ab888261054b565b845260208401935050602081019050610598565b5050509392505050565b600082601f8301126105de576105dd610347565b5b81356105ee848260208601610560565b91505092915050565b6000806040838503121561060e5761060d61033d565b5b600083013567ffffffffffffffff81111561062c5761062b610342565b5b610638858286016104d0565b925050602083013567ffffffffffffffff81111561065957610658610342565b5b610665858286016105c9565b9150509250929050565b600061067a82610429565b9050919050565b61068a8161066f565b811461069557600080fd5b50565b6000813590506106a781610681565b92915050565b600080fd5b60008083601f8401126106c8576106c7610347565b5b8235905067ffffffffffffffff8111156106e5576106e46106ad565b5b60208301915083602082028301111561070157610700610404565b5b9250929050565b60008083601f84011261071e5761071d610347565b5b8235905067ffffffffffffffff81111561073b5761073a6106ad565b5b60208301915083602082028301111561075757610756610404565b5b9250929050565b60008060008060006060868803121561077a5761077961033d565b5b600061078888828901610698565b955050602086013567ffffffffffffffff8111156107a9576107a8610342565b5b6107b5888289016106b2565b9450945050604086013567ffffffffffffffff8111156107d8576107d7610342565b5b6107e488828901610708565b92509250509295509295909350565b7f4e487b7100000000000000000000000000000000000000000000000000000000600052603260045260246000fd5b7f4e487b7100000000000000000000000000000000000000000000000000000000600052601160045260246000fd5b600061085c8261052a565b91507fffffffffffffffffffffffffffffffffffffffffffffffffffffffffffffffff82141561088f5761088e610822565b5b600182019050919050565b60006108a58261052a565b91506108b08361052a565b9250827fffffffffffffffffffffffffffffffffffffffffffffffffffffffffffffffff038211156108e5576108e4610822565b5b828201905092915050565b6108f981610429565b82525050565b6109088161052a565b82525050565b600060608201905061092360008301866108f0565b61093060208301856108f0565b61093d60408301846108ff565b949350505050565b60008115159050919050565b61095a81610945565b811461096557600080fd5b50565b60008151905061097781610951565b92915050565b6000602082840312156109935761099261033d565b5b60006109a184828501610968565b91505092915050565b6000602082840312156109c0576109bf61033d565b5b60006109ce84828501610452565b91505092915050565b60006040820190506109ec60008301856108f0565b6109f960208301846108ff565b939250505056fea2646970667358221220704c33e72ecc2cdc92e4153e51b22d02f4d4459abfdccd33ef179a40e7175d0864736f6c634300080a0033",
    "linkReferences": {},
    "deployedLinkReferences": {}
}